{
  "_format": "hh-sol-artifact-1",
  "contractName": "MyEpicNFT",
  "sourceName": "contracts/MyEpicNFT.sol",
  "abi": [
    {
      "inputs": [],
      "stateMutability": "nonpayable",
      "type": "constructor"
    },
    {
      "anonymous": false,
      "inputs": [
        {
          "indexed": true,
          "internalType": "address",
          "name": "owner",
          "type": "address"
        },
        {
          "indexed": true,
          "internalType": "address",
          "name": "approved",
          "type": "address"
        },
        {
          "indexed": true,
          "internalType": "uint256",
          "name": "tokenId",
          "type": "uint256"
        }
      ],
      "name": "Approval",
      "type": "event"
    },
    {
      "anonymous": false,
      "inputs": [
        {
          "indexed": true,
          "internalType": "address",
          "name": "owner",
          "type": "address"
        },
        {
          "indexed": true,
          "internalType": "address",
          "name": "operator",
          "type": "address"
        },
        {
          "indexed": false,
          "internalType": "bool",
          "name": "approved",
          "type": "bool"
        }
      ],
      "name": "ApprovalForAll",
      "type": "event"
    },
    {
      "anonymous": false,
      "inputs": [
        {
          "indexed": false,
          "internalType": "address",
          "name": "sender",
          "type": "address"
        },
        {
          "indexed": false,
          "internalType": "uint256",
          "name": "tokenId",
          "type": "uint256"
        },
        {
          "indexed": false,
          "internalType": "uint256",
          "name": "nftCount",
          "type": "uint256"
        }
      ],
      "name": "NewEpicNFTMinted",
      "type": "event"
    },
    {
      "anonymous": false,
      "inputs": [
        {
          "indexed": true,
          "internalType": "address",
          "name": "from",
          "type": "address"
        },
        {
          "indexed": true,
          "internalType": "address",
          "name": "to",
          "type": "address"
        },
        {
          "indexed": true,
          "internalType": "uint256",
          "name": "tokenId",
          "type": "uint256"
        }
      ],
      "name": "Transfer",
      "type": "event"
    },
    {
      "inputs": [
        {
          "internalType": "address",
          "name": "to",
          "type": "address"
        },
        {
          "internalType": "uint256",
          "name": "tokenId",
          "type": "uint256"
        }
      ],
      "name": "approve",
      "outputs": [],
      "stateMutability": "nonpayable",
      "type": "function"
    },
    {
      "inputs": [
        {
          "internalType": "address",
          "name": "owner",
          "type": "address"
        }
      ],
      "name": "balanceOf",
      "outputs": [
        {
          "internalType": "uint256",
          "name": "",
          "type": "uint256"
        }
      ],
      "stateMutability": "view",
      "type": "function"
    },
    {
      "inputs": [
        {
          "internalType": "uint256",
          "name": "tokenId",
          "type": "uint256"
        }
      ],
      "name": "getApproved",
      "outputs": [
        {
          "internalType": "address",
          "name": "",
          "type": "address"
        }
      ],
      "stateMutability": "view",
      "type": "function"
    },
    {
      "inputs": [],
      "name": "getTotalNFTsMintedSoFar",
      "outputs": [
        {
          "internalType": "uint256",
          "name": "",
          "type": "uint256"
        }
      ],
      "stateMutability": "view",
      "type": "function"
    },
    {
      "inputs": [
        {
          "internalType": "address",
          "name": "owner",
          "type": "address"
        },
        {
          "internalType": "address",
          "name": "operator",
          "type": "address"
        }
      ],
      "name": "isApprovedForAll",
      "outputs": [
        {
          "internalType": "bool",
          "name": "",
          "type": "bool"
        }
      ],
      "stateMutability": "view",
      "type": "function"
    },
    {
      "inputs": [],
      "name": "makeAnEpicNFT",
      "outputs": [],
      "stateMutability": "nonpayable",
      "type": "function"
    },
    {
      "inputs": [],
      "name": "name",
      "outputs": [
        {
          "internalType": "string",
          "name": "",
          "type": "string"
        }
      ],
      "stateMutability": "view",
      "type": "function"
    },
    {
      "inputs": [
        {
          "internalType": "uint256",
          "name": "tokenId",
          "type": "uint256"
        }
      ],
      "name": "ownerOf",
      "outputs": [
        {
          "internalType": "address",
          "name": "",
          "type": "address"
        }
      ],
      "stateMutability": "view",
      "type": "function"
    },
    {
      "inputs": [
        {
          "internalType": "uint256",
          "name": "tokenId",
          "type": "uint256"
        }
      ],
      "name": "pickRandomColor",
      "outputs": [
        {
          "internalType": "string",
          "name": "",
          "type": "string"
        }
      ],
      "stateMutability": "view",
      "type": "function"
    },
    {
      "inputs": [
        {
          "internalType": "uint256",
          "name": "tokenId",
          "type": "uint256"
        }
      ],
      "name": "pickRandomFirstWord",
      "outputs": [
        {
          "internalType": "string",
          "name": "",
          "type": "string"
        }
      ],
      "stateMutability": "view",
      "type": "function"
    },
    {
      "inputs": [
        {
          "internalType": "uint256",
          "name": "tokenId",
          "type": "uint256"
        }
      ],
      "name": "pickRandomSecondWord",
      "outputs": [
        {
          "internalType": "string",
          "name": "",
          "type": "string"
        }
      ],
      "stateMutability": "view",
      "type": "function"
    },
    {
      "inputs": [
        {
          "internalType": "uint256",
          "name": "tokenId",
          "type": "uint256"
        }
      ],
      "name": "pickRandomThirdWord",
      "outputs": [
        {
          "internalType": "string",
          "name": "",
          "type": "string"
        }
      ],
      "stateMutability": "view",
      "type": "function"
    },
    {
      "inputs": [
        {
          "internalType": "address",
          "name": "from",
          "type": "address"
        },
        {
          "internalType": "address",
          "name": "to",
          "type": "address"
        },
        {
          "internalType": "uint256",
          "name": "tokenId",
          "type": "uint256"
        }
      ],
      "name": "safeTransferFrom",
      "outputs": [],
      "stateMutability": "nonpayable",
      "type": "function"
    },
    {
      "inputs": [
        {
          "internalType": "address",
          "name": "from",
          "type": "address"
        },
        {
          "internalType": "address",
          "name": "to",
          "type": "address"
        },
        {
          "internalType": "uint256",
          "name": "tokenId",
          "type": "uint256"
        },
        {
          "internalType": "bytes",
          "name": "_data",
          "type": "bytes"
        }
      ],
      "name": "safeTransferFrom",
      "outputs": [],
      "stateMutability": "nonpayable",
      "type": "function"
    },
    {
      "inputs": [
        {
          "internalType": "address",
          "name": "operator",
          "type": "address"
        },
        {
          "internalType": "bool",
          "name": "approved",
          "type": "bool"
        }
      ],
      "name": "setApprovalForAll",
      "outputs": [],
      "stateMutability": "nonpayable",
      "type": "function"
    },
    {
      "inputs": [
        {
          "internalType": "bytes4",
          "name": "interfaceId",
          "type": "bytes4"
        }
      ],
      "name": "supportsInterface",
      "outputs": [
        {
          "internalType": "bool",
          "name": "",
          "type": "bool"
        }
      ],
      "stateMutability": "view",
      "type": "function"
    },
    {
      "inputs": [],
      "name": "symbol",
      "outputs": [
        {
          "internalType": "string",
          "name": "",
          "type": "string"
        }
      ],
      "stateMutability": "view",
      "type": "function"
    },
    {
      "inputs": [
        {
          "internalType": "uint256",
          "name": "tokenId",
          "type": "uint256"
        }
      ],
      "name": "tokenURI",
      "outputs": [
        {
          "internalType": "string",
          "name": "",
          "type": "string"
        }
      ],
      "stateMutability": "view",
      "type": "function"
    },
    {
      "inputs": [
        {
          "internalType": "address",
          "name": "from",
          "type": "address"
        },
        {
          "internalType": "address",
          "name": "to",
          "type": "address"
        },
        {
          "internalType": "uint256",
          "name": "tokenId",
          "type": "uint256"
        }
      ],
      "name": "transferFrom",
      "outputs": [],
      "stateMutability": "nonpayable",
      "type": "function"
    }
  ],
  "bytecode": "0x6080604052603260085560405180610100016040528060d38152602001620048ba60d39139600990805190602001906200003b92919062000831565b506040518060800160405280605681526020016200498d60569139600a90805190602001906200006d92919062000831565b506040518060c001604052806040518060400160405280600581526020017f666c65736800000000000000000000000000000000000000000000000000000081525081526020016040518060400160405280600581526020017f726164696f00000000000000000000000000000000000000000000000000000081525081526020016040518060400160405280600581526020017f7370656c6c00000000000000000000000000000000000000000000000000000081525081526020016040518060400160405280600881526020017f686561646c696e6500000000000000000000000000000000000000000000000081525081526020016040518060400160405280600481526020017f63726f700000000000000000000000000000000000000000000000000000000081525081526020016040518060400160405280600a81526020017f646570656e64656e636500000000000000000000000000000000000000000000815250815250600b906006620001eb929190620008c2565b506040518060c001604052806040518060400160405280600b81526020017f7368617265686f6c64657200000000000000000000000000000000000000000081525081526020016040518060400160405280600581526020017f626c616d6500000000000000000000000000000000000000000000000000000081525081526020016040518060400160405280600681526020017f616e696d616c000000000000000000000000000000000000000000000000000081525081526020016040518060400160405280600881526020017f736c69707065727900000000000000000000000000000000000000000000000081525081526020016040518060400160405280600781526020017f656d6f74696f6e0000000000000000000000000000000000000000000000000081525081526020016040518060400160405280600581526020017f6167696c65000000000000000000000000000000000000000000000000000000815250815250600c90600662000369929190620008c2565b506040518060c001604052806040518060400160405280600681526020017f6f6666696365000000000000000000000000000000000000000000000000000081525081526020016040518060400160405280600681526020017f617061746879000000000000000000000000000000000000000000000000000081525081526020016040518060400160405280600581526020017f736d6f6b6500000000000000000000000000000000000000000000000000000081525081526020016040518060400160405280600781526020017f70726f647563650000000000000000000000000000000000000000000000000081525081526020016040518060400160405280600781526020017f6c6967687465720000000000000000000000000000000000000000000000000081525081526020016040518060400160405280600381526020017f66756e0000000000000000000000000000000000000000000000000000000000815250815250600d906006620004e7929190620008c2565b506040518060c001604052806040518060400160405280600381526020017f726564000000000000000000000000000000000000000000000000000000000081525081526020016040518060400160405280600781526020017f233038433241380000000000000000000000000000000000000000000000000081525081526020016040518060400160405280600581526020017f626c61636b00000000000000000000000000000000000000000000000000000081525081526020016040518060400160405280600681526020017f79656c6c6f77000000000000000000000000000000000000000000000000000081525081526020016040518060400160405280600481526020017f626c75650000000000000000000000000000000000000000000000000000000081525081526020016040518060400160405280600581526020017f677265656e000000000000000000000000000000000000000000000000000000815250815250600e90600662000665929190620008c2565b503480156200067357600080fd5b506040518060400160405280600981526020017f5371756172654e465400000000000000000000000000000000000000000000008152506040518060400160405280600681526020017f53515541524500000000000000000000000000000000000000000000000000008152508160009080519060200190620006f892919062000831565b5080600190805190602001906200071192919062000831565b5050506200075f6040518060400160405280601e81526020017f54686973206973206d79204e465420636f6e74726163742e20576f61682100008152506200076560201b620014741760201c565b62000ae3565b62000805816040516024016200077c9190620009f7565b6040516020818303038152906040527f41304fac000000000000000000000000000000000000000000000000000000007bffffffffffffffffffffffffffffffffffffffffffffffffffffffff19166020820180517bffffffffffffffffffffffffffffffffffffffffffffffffffffffff83818316178352505050506200080860201b60201c565b50565b60008151905060006a636f6e736f6c652e6c6f679050602083016000808483855afa5050505050565b8280546200083f9062000a6d565b90600052602060002090601f016020900481019282620008635760008555620008af565b82601f106200087e57805160ff1916838001178555620008af565b82800160010185558215620008af579182015b82811115620008ae57825182559160200191906001019062000891565b5b509050620008be919062000929565b5090565b82805482825590600052602060002090810192821562000916579160200282015b82811115620009155782518290805190602001906200090492919062000831565b5091602001919060010190620008e3565b5b50905062000925919062000948565b5090565b5b80821115620009445760008160009055506001016200092a565b5090565b5b808211156200096c576000818162000962919062000970565b5060010162000949565b5090565b5080546200097e9062000a6d565b6000825580601f10620009925750620009b3565b601f016020900490600052602060002090810190620009b2919062000929565b5b50565b6000620009c38262000a1b565b620009cf818562000a26565b9350620009e181856020860162000a37565b620009ec8162000ad2565b840191505092915050565b6000602082019050818103600083015262000a138184620009b6565b905092915050565b600081519050919050565b600082825260208201905092915050565b60005b8381101562000a5757808201518184015260208101905062000a3a565b8381111562000a67576000848401525b50505050565b6000600282049050600182168062000a8657607f821691505b6020821081141562000a9d5762000a9c62000aa3565b5b50919050565b7f4e487b7100000000000000000000000000000000000000000000000000000000600052602260045260246000fd5b6000601f19601f8301169050919050565b613dc78062000af36000396000f3fe608060405234801561001057600080fd5b50600436106101215760003560e01c80636352211e116100ad578063b88d4fde11610071578063b88d4fde14610340578063c575757a1461035c578063c87b56dd1461038c578063de9d132f146103bc578063e985e9c5146103c657610121565b80636352211e1461027657806370a08231146102a657806395d89b41146102d6578063a22cb465146102f4578063b187301f1461031057610121565b8063095ea7b3116100f4578063095ea7b3146101c257806323b872dd146101de5780632de38d68146101fa57806342842e0e1461022a578063514dc8c61461024657610121565b806301ffc9a714610126578063060475901461015657806306fdde0314610174578063081812fc14610192575b600080fd5b610140600480360381019061013b91906127a3565b6103f6565b60405161014d9190612f3d565b60405180910390f35b61015e6104d8565b60405161016b9190613208565b60405180910390f35b61017c610539565b6040516101899190612f58565b60405180910390f35b6101ac60048036038101906101a791906127f5565b6105cb565b6040516101b99190612e9f565b60405180910390f35b6101dc60048036038101906101d79190612767565b610650565b005b6101f860048036038101906101f39190612661565b610768565b005b610214600480360381019061020f91906127f5565b6107c8565b6040516102219190612f58565b60405180910390f35b610244600480360381019061023f9190612661565b6108e6565b005b610260600480360381019061025b91906127f5565b610906565b60405161026d9190612f58565b60405180910390f35b610290600480360381019061028b91906127f5565b610a24565b60405161029d9190612e9f565b60405180910390f35b6102c060048036038101906102bb91906125fc565b610ad6565b6040516102cd9190613208565b60405180910390f35b6102de610b8e565b6040516102eb9190612f58565b60405180910390f35b61030e6004803603810190610309919061272b565b610c20565b005b61032a600480360381019061032591906127f5565b610da1565b6040516103379190612f58565b60405180910390f35b61035a600480360381019061035591906126b0565b610ebf565b005b610376600480360381019061037191906127f5565b610f21565b6040516103839190612f58565b60405180910390f35b6103a660048036038101906103a191906127f5565b61103f565b6040516103b39190612f58565b60405180910390f35b6103c4611191565b005b6103e060048036038101906103db9190612625565b6113e0565b6040516103ed9190612f3d565b60405180910390f35b60007f80ac58cd000000000000000000000000000000000000000000000000000000007bffffffffffffffffffffffffffffffffffffffffffffffffffffffff1916827bffffffffffffffffffffffffffffffffffffffffffffffffffffffff191614806104c157507f5b5e139f000000000000000000000000000000000000000000000000000000007bffffffffffffffffffffffffffffffffffffffffffffffffffffffff1916827bffffffffffffffffffffffffffffffffffffffffffffffffffffffff1916145b806104d157506104d08261150d565b5b9050919050565b60008060016104e76007611577565b6104f191906132d1565b90506105326040518060400160405280601b81526020017f546f74616c204e465473206d696e74656420736f20666172202573000000000081525082611585565b8091505090565b6060600080546105489061349c565b80601f01602080910402602001604051908101604052809291908181526020018280546105749061349c565b80156105c15780601f10610596576101008083540402835291602001916105c1565b820191906000526020600020905b8154815290600101906020018083116105a457829003601f168201915b5050505050905090565b60006105d682611621565b610615576040517f08c379a000000000000000000000000000000000000000000000000000000000815260040161060c90613168565b60405180910390fd5b6004600083815260200190815260200160002060009054906101000a900473ffffffffffffffffffffffffffffffffffffffff169050919050565b600061065b82610a24565b90508073ffffffffffffffffffffffffffffffffffffffff168373ffffffffffffffffffffffffffffffffffffffff1614156106cc576040517f08c379a00000000000000000000000000000000000000000000000000000000081526004016106c3906131c8565b60405180910390fd5b8073ffffffffffffffffffffffffffffffffffffffff166106eb61168d565b73ffffffffffffffffffffffffffffffffffffffff16148061071a57506107198161071461168d565b6113e0565b5b610759576040517f08c379a0000000000000000000000000000000000000000000000000000000008152600401610750906130a8565b60405180910390fd5b6107638383611695565b505050565b61077961077361168d565b8261174e565b6107b8576040517f08c379a00000000000000000000000000000000000000000000000000000000081526004016107af906131e8565b60405180910390fd5b6107c383838361182c565b505050565b606060006107fc6107d884611a88565b6040516020016107e89190612e39565b604051602081830303815290604052611c35565b9050600b805490508161080f9190613548565b9050600b818154811061084b577f4e487b7100000000000000000000000000000000000000000000000000000000600052603260045260246000fd5b9060005260206000200180546108609061349c565b80601f016020809104026020016040519081016040528092919081815260200182805461088c9061349c565b80156108d95780601f106108ae576101008083540402835291602001916108d9565b820191906000526020600020905b8154815290600101906020018083116108bc57829003601f168201915b5050505050915050919050565b61090183838360405180602001604052806000815250610ebf565b505050565b6060600061093a61091684611a88565b6040516020016109269190612e7d565b604051602081830303815290604052611c35565b9050600e805490508161094d9190613548565b9050600e8181548110610989577f4e487b7100000000000000000000000000000000000000000000000000000000600052603260045260246000fd5b90600052602060002001805461099e9061349c565b80601f01602080910402602001604051908101604052809291908181526020018280546109ca9061349c565b8015610a175780601f106109ec57610100808354040283529160200191610a17565b820191906000526020600020905b8154815290600101906020018083116109fa57829003601f168201915b5050505050915050919050565b6000806002600084815260200190815260200160002060009054906101000a900473ffffffffffffffffffffffffffffffffffffffff169050600073ffffffffffffffffffffffffffffffffffffffff168173ffffffffffffffffffffffffffffffffffffffff161415610acd576040517f08c379a0000000000000000000000000000000000000000000000000000000008152600401610ac4906130e8565b60405180910390fd5b80915050919050565b60008073ffffffffffffffffffffffffffffffffffffffff168273ffffffffffffffffffffffffffffffffffffffff161415610b47576040517f08c379a0000000000000000000000000000000000000000000000000000000008152600401610b3e906130c8565b60405180910390fd5b600360008373ffffffffffffffffffffffffffffffffffffffff1673ffffffffffffffffffffffffffffffffffffffff168152602001908152602001600020549050919050565b606060018054610b9d9061349c565b80601f0160208091040260200160405190810160405280929190818152602001828054610bc99061349c565b8015610c165780601f10610beb57610100808354040283529160200191610c16565b820191906000526020600020905b815481529060010190602001808311610bf957829003601f168201915b5050505050905090565b610c2861168d565b73ffffffffffffffffffffffffffffffffffffffff168273ffffffffffffffffffffffffffffffffffffffff161415610c96576040517f08c379a0000000000000000000000000000000000000000000000000000000008152600401610c8d90613068565b60405180910390fd5b8060056000610ca361168d565b73ffffffffffffffffffffffffffffffffffffffff1673ffffffffffffffffffffffffffffffffffffffff16815260200190815260200160002060008473ffffffffffffffffffffffffffffffffffffffff1673ffffffffffffffffffffffffffffffffffffffff16815260200190815260200160002060006101000a81548160ff0219169083151502179055508173ffffffffffffffffffffffffffffffffffffffff16610d5061168d565b73ffffffffffffffffffffffffffffffffffffffff167f17307eab39ab6107e8899845ad3d59bd9653f200f220920489ca2b5937696c3183604051610d959190612f3d565b60405180910390a35050565b60606000610dd5610db184611a88565b604051602001610dc19190612dd2565b604051602081830303815290604052611c35565b9050600c8054905081610de89190613548565b9050600c8181548110610e24577f4e487b7100000000000000000000000000000000000000000000000000000000600052603260045260246000fd5b906000526020600020018054610e399061349c565b80601f0160208091040260200160405190810160405280929190818152602001828054610e659061349c565b8015610eb25780601f10610e8757610100808354040283529160200191610eb2565b820191906000526020600020905b815481529060010190602001808311610e9557829003601f168201915b5050505050915050919050565b610ed0610eca61168d565b8361174e565b610f0f576040517f08c379a0000000000000000000000000000000000000000000000000000000008152600401610f06906131e8565b60405180910390fd5b610f1b84848484611c68565b50505050565b60606000610f55610f3184611a88565b604051602001610f419190612db0565b604051602081830303815290604052611c35565b9050600d8054905081610f689190613548565b9050600d8181548110610fa4577f4e487b7100000000000000000000000000000000000000000000000000000000600052603260045260246000fd5b906000526020600020018054610fb99061349c565b80601f0160208091040260200160405190810160405280929190818152602001828054610fe59061349c565b80156110325780601f1061100757610100808354040283529160200191611032565b820191906000526020600020905b81548152906001019060200180831161101557829003601f168201915b5050505050915050919050565b606061104a82611621565b611089576040517f08c379a000000000000000000000000000000000000000000000000000000000815260040161108090613148565b60405180910390fd5b60006006600084815260200190815260200160002080546110a99061349c565b80601f01602080910402602001604051908101604052809291908181526020018280546110d59061349c565b80156111225780601f106110f757610100808354040283529160200191611122565b820191906000526020600020905b81548152906001019060200180831161110557829003601f168201915b505050505090506000611133611cc4565b905060008151141561114957819250505061118c565b60008251111561117e578082604051602001611166929190612d12565b6040516020818303038152906040529250505061118c565b61118784611cdb565b925050505b919050565b60085461119c6104d8565b11156111dd576040517f08c379a00000000000000000000000000000000000000000000000000000000081526004016111d490612fe8565b60405180910390fd5b60006111e96007611577565b905060006111f6826107c8565b9050600061120383610da1565b9050600061121084610f21565b9050600083838360405160200161122993929190612d36565b6040516020818303038152906040529050600061124586610906565b90506000600982600a856040516020016112629493929190612d67565b604051602081830303815290604052905060006112a78461128284611d82565b604051602001611293929190612df4565b604051602081830303815290604052611d82565b90506000816040516020016112bc9190612e5b565b604051602081830303815290604052905061130b6040518060400160405280601581526020017f0a2d2d2d2d2d2d2d2d2d2d2d2d2d2d2d2d2d2d2d2d0000000000000000000000815250611474565b61131481611474565b6113526040518060400160405280601581526020017f2d2d2d2d2d2d2d2d2d2d2d2d2d2d2d2d2d2d2d2d0a0000000000000000000000815250611474565b61135c338a611f40565b6113668982611f5e565b7f9e9e101732de0887d722bd72c01c5439edc857c9c2c763953d67e66de12441d3338a6113916104d8565b6040516113a093929190612f06565b60405180910390a16113b26007611fd2565b6113d5604051806060016040528060258152602001613d2d602591398a33611fe8565b505050505050505050565b6000600560008473ffffffffffffffffffffffffffffffffffffffff1673ffffffffffffffffffffffffffffffffffffffff16815260200190815260200160002060008373ffffffffffffffffffffffffffffffffffffffff1673ffffffffffffffffffffffffffffffffffffffff16815260200190815260200160002060009054906101000a900460ff16905092915050565b61150a816040516024016114889190612f58565b6040516020818303038152906040527f41304fac000000000000000000000000000000000000000000000000000000007bffffffffffffffffffffffffffffffffffffffffffffffffffffffff19166020820180517bffffffffffffffffffffffffffffffffffffffffffffffffffffffff8381831617835250505050612087565b50565b60007f01ffc9a7000000000000000000000000000000000000000000000000000000007bffffffffffffffffffffffffffffffffffffffffffffffffffffffff1916827bffffffffffffffffffffffffffffffffffffffffffffffffffffffff1916149050919050565b600081600001549050919050565b61161d828260405160240161159b929190612f7a565b6040516020818303038152906040527f9710a9d0000000000000000000000000000000000000000000000000000000007bffffffffffffffffffffffffffffffffffffffffffffffffffffffff19166020820180517bffffffffffffffffffffffffffffffffffffffffffffffffffffffff8381831617835250505050612087565b5050565b60008073ffffffffffffffffffffffffffffffffffffffff166002600084815260200190815260200160002060009054906101000a900473ffffffffffffffffffffffffffffffffffffffff1673ffffffffffffffffffffffffffffffffffffffff1614159050919050565b600033905090565b816004600083815260200190815260200160002060006101000a81548173ffffffffffffffffffffffffffffffffffffffff021916908373ffffffffffffffffffffffffffffffffffffffff160217905550808273ffffffffffffffffffffffffffffffffffffffff1661170883610a24565b73ffffffffffffffffffffffffffffffffffffffff167f8c5be1e5ebec7d5bd14f71427d1e84f3dd0314c0f7b2291e5b200ac8c7c3b92560405160405180910390a45050565b600061175982611621565b611798576040517f08c379a000000000000000000000000000000000000000000000000000000000815260040161178f90613088565b60405180910390fd5b60006117a383610a24565b90508073ffffffffffffffffffffffffffffffffffffffff168473ffffffffffffffffffffffffffffffffffffffff16148061181257508373ffffffffffffffffffffffffffffffffffffffff166117fa846105cb565b73ffffffffffffffffffffffffffffffffffffffff16145b80611823575061182281856113e0565b5b91505092915050565b8273ffffffffffffffffffffffffffffffffffffffff1661184c82610a24565b73ffffffffffffffffffffffffffffffffffffffff16146118a2576040517f08c379a000000000000000000000000000000000000000000000000000000000815260040161189990613188565b60405180910390fd5b600073ffffffffffffffffffffffffffffffffffffffff168273ffffffffffffffffffffffffffffffffffffffff161415611912576040517f08c379a000000000000000000000000000000000000000000000000000000000815260040161190990613048565b60405180910390fd5b61191d8383836120b0565b611928600082611695565b6001600360008573ffffffffffffffffffffffffffffffffffffffff1673ffffffffffffffffffffffffffffffffffffffff168152602001908152602001600020600082825461197891906133b2565b925050819055506001600360008473ffffffffffffffffffffffffffffffffffffffff1673ffffffffffffffffffffffffffffffffffffffff16815260200190815260200160002060008282546119cf91906132d1565b92505081905550816002600083815260200190815260200160002060006101000a81548173ffffffffffffffffffffffffffffffffffffffff021916908373ffffffffffffffffffffffffffffffffffffffff160217905550808273ffffffffffffffffffffffffffffffffffffffff168473ffffffffffffffffffffffffffffffffffffffff167fddf252ad1be2c89b69c2b068fc378daa952ba7f163c4a11628f55a4df523b3ef60405160405180910390a4505050565b60606000821415611ad0576040518060400160405280600181526020017f30000000000000000000000000000000000000000000000000000000000000008152509050611c30565b600082905060005b60008214611b02578080611aeb906134ff565b915050600a82611afb9190613327565b9150611ad8565b60008167ffffffffffffffff811115611b44577f4e487b7100000000000000000000000000000000000000000000000000000000600052604160045260246000fd5b6040519080825280601f01601f191660200182016040528015611b765781602001600182028036833780820191505090505b5090505b60008514611c2957600182611b8f91906133b2565b9150600a85611b9e9190613548565b6030611baa91906132d1565b60f81b818381518110611be6577f4e487b7100000000000000000000000000000000000000000000000000000000600052603260045260246000fd5b60200101907effffffffffffffffffffffffffffffffffffffffffffffffffffffffffffff1916908160001a905350600a85611c229190613327565b9450611b7a565b8093505050505b919050565b600081604051602001611c489190612cfb565b6040516020818303038152906040528051906020012060001c9050919050565b611c7384848461182c565b611c7f848484846120b5565b611cbe576040517f08c379a0000000000000000000000000000000000000000000000000000000008152600401611cb590613008565b60405180910390fd5b50505050565b606060405180602001604052806000815250905090565b6060611ce682611621565b611d25576040517f08c379a0000000000000000000000000000000000000000000000000000000008152600401611d1c906131a8565b60405180910390fd5b6000611d2f611cc4565b90506000815111611d4f5760405180602001604052806000815250611d7a565b80611d5984611a88565b604051602001611d6a929190612d12565b6040516020818303038152906040525b915050919050565b60606000825190506000811415611dab5760405180602001604052806000815250915050611f3b565b60006003600283611dbc91906132d1565b611dc69190613327565b6004611dd29190613358565b90506000602082611de391906132d1565b67ffffffffffffffff811115611e22577f4e487b7100000000000000000000000000000000000000000000000000000000600052604160045260246000fd5b6040519080825280601f01601f191660200182016040528015611e545781602001600182028036833780820191505090505b5090506000604051806060016040528060408152602001613d52604091399050600181016020830160005b86811015611ef85760038101905062ffffff818a015116603f8160121c168401518060081b905060ff603f83600c1c1686015116810190508060081b905060ff603f8360061c1686015116810190508060081b905060ff603f831686015116810190508060e01b90508084526004840193505050611e7f565b506003860660018114611f125760028114611f2257611f2d565b613d3d60f01b6002830352611f2d565b603d60f81b60018303525b508484525050819450505050505b919050565b611f5a82826040518060200160405280600081525061224c565b5050565b611f6782611621565b611fa6576040517f08c379a0000000000000000000000000000000000000000000000000000000008152600401611f9d90613108565b60405180910390fd5b80600660008481526020019081526020016000209080519060200190611fcd929190612488565b505050565b6001816000016000828254019250508190555050565b61208283838360405160240161200093929190612faa565b6040516020818303038152906040527fe3849f79000000000000000000000000000000000000000000000000000000007bffffffffffffffffffffffffffffffffffffffffffffffffffffffff19166020820180517bffffffffffffffffffffffffffffffffffffffffffffffffffffffff8381831617835250505050612087565b505050565b60008151905060006a636f6e736f6c652e6c6f679050602083016000808483855afa5050505050565b505050565b60006120d68473ffffffffffffffffffffffffffffffffffffffff166122a7565b1561223f578373ffffffffffffffffffffffffffffffffffffffff1663150b7a026120ff61168d565b8786866040518563ffffffff1660e01b81526004016121219493929190612eba565b602060405180830381600087803b15801561213b57600080fd5b505af192505050801561216c57506040513d601f19601f8201168201806040525081019061216991906127cc565b60015b6121ef573d806000811461219c576040519150601f19603f3d011682016040523d82523d6000602084013e6121a1565b606091505b506000815114156121e7576040517f08c379a00000000000000000000000000000000000000000000000000000000081526004016121de90613008565b60405180910390fd5b805181602001fd5b63150b7a0260e01b7bffffffffffffffffffffffffffffffffffffffffffffffffffffffff1916817bffffffffffffffffffffffffffffffffffffffffffffffffffffffff191614915050612244565b600190505b949350505050565b61225683836122ba565b61226360008484846120b5565b6122a2576040517f08c379a000000000000000000000000000000000000000000000000000000000815260040161229990613008565b60405180910390fd5b505050565b600080823b905060008111915050919050565b600073ffffffffffffffffffffffffffffffffffffffff168273ffffffffffffffffffffffffffffffffffffffff16141561232a576040517f08c379a000000000000000000000000000000000000000000000000000000000815260040161232190613128565b60405180910390fd5b61233381611621565b15612373576040517f08c379a000000000000000000000000000000000000000000000000000000000815260040161236a90613028565b60405180910390fd5b61237f600083836120b0565b6001600360008473ffffffffffffffffffffffffffffffffffffffff1673ffffffffffffffffffffffffffffffffffffffff16815260200190815260200160002060008282546123cf91906132d1565b92505081905550816002600083815260200190815260200160002060006101000a81548173ffffffffffffffffffffffffffffffffffffffff021916908373ffffffffffffffffffffffffffffffffffffffff160217905550808273ffffffffffffffffffffffffffffffffffffffff16600073ffffffffffffffffffffffffffffffffffffffff167fddf252ad1be2c89b69c2b068fc378daa952ba7f163c4a11628f55a4df523b3ef60405160405180910390a45050565b8280546124949061349c565b90600052602060002090601f0160209004810192826124b657600085556124fd565b82601f106124cf57805160ff19168380011785556124fd565b828001600101855582156124fd579182015b828111156124fc5782518255916020019190600101906124e1565b5b50905061250a919061250e565b5090565b5b8082111561252757600081600090555060010161250f565b5090565b600061253e61253984613248565b613223565b90508281526020810184848401111561255657600080fd5b61256184828561345a565b509392505050565b60008135905061257881613cd0565b92915050565b60008135905061258d81613ce7565b92915050565b6000813590506125a281613cfe565b92915050565b6000815190506125b781613cfe565b92915050565b600082601f8301126125ce57600080fd5b81356125de84826020860161252b565b91505092915050565b6000813590506125f681613d15565b92915050565b60006020828403121561260e57600080fd5b600061261c84828501612569565b91505092915050565b6000806040838503121561263857600080fd5b600061264685828601612569565b925050602061265785828601612569565b9150509250929050565b60008060006060848603121561267657600080fd5b600061268486828701612569565b935050602061269586828701612569565b92505060406126a6868287016125e7565b9150509250925092565b600080600080608085870312156126c657600080fd5b60006126d487828801612569565b94505060206126e587828801612569565b93505060406126f6878288016125e7565b925050606085013567ffffffffffffffff81111561271357600080fd5b61271f878288016125bd565b91505092959194509250565b6000806040838503121561273e57600080fd5b600061274c85828601612569565b925050602061275d8582860161257e565b9150509250929050565b6000806040838503121561277a57600080fd5b600061278885828601612569565b9250506020612799858286016125e7565b9150509250929050565b6000602082840312156127b557600080fd5b60006127c384828501612593565b91505092915050565b6000602082840312156127de57600080fd5b60006127ec848285016125a8565b91505092915050565b60006020828403121561280757600080fd5b6000612815848285016125e7565b91505092915050565b612827816133e6565b82525050565b612836816133f8565b82525050565b60006128478261328e565b61285181856132a4565b9350612861818560208601613469565b61286a81613635565b840191505092915050565b600061288082613299565b61288a81856132b5565b935061289a818560208601613469565b6128a381613635565b840191505092915050565b60006128b982613299565b6128c381856132c6565b93506128d3818560208601613469565b80840191505092915050565b600081546128ec8161349c565b6128f681866132c6565b94506001821660008114612911576001811461292257612955565b60ff19831686528186019350612955565b61292b85613279565b60005b8381101561294d5781548189015260018201915060208101905061292e565b838801955050505b50505092915050565b600061296b601e836132b5565b915061297682613646565b602082019050919050565b600061298e6032836132b5565b91506129998261366f565b604082019050919050565b60006129b1601c836132b5565b91506129bc826136be565b602082019050919050565b60006129d4600a836132c6565b91506129df826136e7565b600a82019050919050565b60006129f76024836132b5565b9150612a0282613710565b604082019050919050565b6000612a1a6019836132b5565b9150612a258261375f565b602082019050919050565b6000612a3d6063836132c6565b9150612a4882613788565b606382019050919050565b6000612a60600b836132c6565b9150612a6b82613823565b600b82019050919050565b6000612a83602c836132b5565b9150612a8e8261384c565b604082019050919050565b6000612aa6600d836132c6565b9150612ab18261389b565b600d82019050919050565b6000612ac96038836132b5565b9150612ad4826138c4565b604082019050919050565b6000612aec602a836132b5565b9150612af782613913565b604082019050919050565b6000612b0f6029836132b5565b9150612b1a82613962565b604082019050919050565b6000612b32602e836132b5565b9150612b3d826139b1565b604082019050919050565b6000612b556002836132c6565b9150612b6082613a00565b600282019050919050565b6000612b786020836132b5565b9150612b8382613a29565b602082019050919050565b6000612b9b6031836132b5565b9150612ba682613a52565b604082019050919050565b6000612bbe602c836132b5565b9150612bc982613aa1565b604082019050919050565b6000612be16029836132b5565b9150612bec82613af0565b604082019050919050565b6000612c04602f836132b5565b9150612c0f82613b3f565b604082019050919050565b6000612c27600a836132c6565b9150612c3282613b8e565b600a82019050919050565b6000612c4a6021836132b5565b9150612c5582613bb7565b604082019050919050565b6000612c6d600a836132c6565b9150612c7882613c06565b600a82019050919050565b6000612c90601d836132c6565b9150612c9b82613c2f565b601d82019050919050565b6000612cb36031836132b5565b9150612cbe82613c58565b604082019050919050565b6000612cd66005836132c6565b9150612ce182613ca7565b600582019050919050565b612cf581613450565b82525050565b6000612d0782846128ae565b915081905092915050565b6000612d1e82856128ae565b9150612d2a82846128ae565b91508190509392505050565b6000612d4282866128ae565b9150612d4e82856128ae565b9150612d5a82846128ae565b9150819050949350505050565b6000612d7382876128df565b9150612d7f82866128ae565b9150612d8b82856128df565b9150612d9782846128ae565b9150612da282612a99565b915081905095945050505050565b6000612dbb826129c7565b9150612dc782846128ae565b915081905092915050565b6000612ddd82612a53565b9150612de982846128ae565b915081905092915050565b6000612dff82612c1a565b9150612e0b82856128ae565b9150612e1682612a30565b9150612e2282846128ae565b9150612e2d82612b48565b91508190509392505050565b6000612e4482612c60565b9150612e5082846128ae565b915081905092915050565b6000612e6682612c83565b9150612e7282846128ae565b915081905092915050565b6000612e8882612cc9565b9150612e9482846128ae565b915081905092915050565b6000602082019050612eb4600083018461281e565b92915050565b6000608082019050612ecf600083018761281e565b612edc602083018661281e565b612ee96040830185612cec565b8181036060830152612efb818461283c565b905095945050505050565b6000606082019050612f1b600083018661281e565b612f286020830185612cec565b612f356040830184612cec565b949350505050565b6000602082019050612f52600083018461282d565b92915050565b60006020820190508181036000830152612f728184612875565b905092915050565b60006040820190508181036000830152612f948185612875565b9050612fa36020830184612cec565b9392505050565b60006060820190508181036000830152612fc48186612875565b9050612fd36020830185612cec565b612fe0604083018461281e565b949350505050565b600060208201905081810360008301526130018161295e565b9050919050565b6000602082019050818103600083015261302181612981565b9050919050565b60006020820190508181036000830152613041816129a4565b9050919050565b60006020820190508181036000830152613061816129ea565b9050919050565b6000602082019050818103600083015261308181612a0d565b9050919050565b600060208201905081810360008301526130a181612a76565b9050919050565b600060208201905081810360008301526130c181612abc565b9050919050565b600060208201905081810360008301526130e181612adf565b9050919050565b6000602082019050818103600083015261310181612b02565b9050919050565b6000602082019050818103600083015261312181612b25565b9050919050565b6000602082019050818103600083015261314181612b6b565b9050919050565b6000602082019050818103600083015261316181612b8e565b9050919050565b6000602082019050818103600083015261318181612bb1565b9050919050565b600060208201905081810360008301526131a181612bd4565b9050919050565b600060208201905081810360008301526131c181612bf7565b9050919050565b600060208201905081810360008301526131e181612c3d565b9050919050565b6000602082019050818103600083015261320181612ca6565b9050919050565b600060208201905061321d6000830184612cec565b92915050565b600061322d61323e565b905061323982826134ce565b919050565b6000604051905090565b600067ffffffffffffffff82111561326357613262613606565b5b61326c82613635565b9050602081019050919050565b60008190508160005260206000209050919050565b600081519050919050565b600081519050919050565b600082825260208201905092915050565b600082825260208201905092915050565b600081905092915050565b60006132dc82613450565b91506132e783613450565b9250827fffffffffffffffffffffffffffffffffffffffffffffffffffffffffffffffff0382111561331c5761331b613579565b5b828201905092915050565b600061333282613450565b915061333d83613450565b92508261334d5761334c6135a8565b5b828204905092915050565b600061336382613450565b915061336e83613450565b9250817fffffffffffffffffffffffffffffffffffffffffffffffffffffffffffffffff04831182151516156133a7576133a6613579565b5b828202905092915050565b60006133bd82613450565b91506133c883613450565b9250828210156133db576133da613579565b5b828203905092915050565b60006133f182613430565b9050919050565b60008115159050919050565b60007fffffffff0000000000000000000000000000000000000000000000000000000082169050919050565b600073ffffffffffffffffffffffffffffffffffffffff82169050919050565b6000819050919050565b82818337600083830152505050565b60005b8381101561348757808201518184015260208101905061346c565b83811115613496576000848401525b50505050565b600060028204905060018216806134b457607f821691505b602082108114156134c8576134c76135d7565b5b50919050565b6134d782613635565b810181811067ffffffffffffffff821117156134f6576134f5613606565b5b80604052505050565b600061350a82613450565b91507fffffffffffffffffffffffffffffffffffffffffffffffffffffffffffffffff82141561353d5761353c613579565b5b600182019050919050565b600061355382613450565b915061355e83613450565b92508261356e5761356d6135a8565b5b828206905092915050565b7f4e487b7100000000000000000000000000000000000000000000000000000000600052601160045260246000fd5b7f4e487b7100000000000000000000000000000000000000000000000000000000600052601260045260246000fd5b7f4e487b7100000000000000000000000000000000000000000000000000000000600052602260045260246000fd5b7f4e487b7100000000000000000000000000000000000000000000000000000000600052604160045260246000fd5b6000601f19601f8301169050919050565b7f52656163686564206d6178696d756d206e756d626572206f66204e4654730000600082015250565b7f4552433732313a207472616e7366657220746f206e6f6e20455243373231526560008201527f63656976657220696d706c656d656e7465720000000000000000000000000000602082015250565b7f4552433732313a20746f6b656e20616c7265616479206d696e74656400000000600082015250565b7f54484952445f574f524400000000000000000000000000000000000000000000600082015250565b7f4552433732313a207472616e7366657220746f20746865207a65726f2061646460008201527f7265737300000000000000000000000000000000000000000000000000000000602082015250565b7f4552433732313a20617070726f766520746f2063616c6c657200000000000000600082015250565b7f222c20226465736372697074696f6e223a20224120686967686c79206163636c60008201527f61696d656420636f6c6c656374696f6e206f6620737175617265732e222c202260208201527f696d616765223a2022646174613a696d6167652f7376672b786d6c3b6261736560408201527f36342c0000000000000000000000000000000000000000000000000000000000606082015250565b7f5345434f4e445f574f5244000000000000000000000000000000000000000000600082015250565b7f4552433732313a206f70657261746f7220717565727920666f72206e6f6e657860008201527f697374656e7420746f6b656e0000000000000000000000000000000000000000602082015250565b7f3c2f746578743e3c2f7376673e00000000000000000000000000000000000000600082015250565b7f4552433732313a20617070726f76652063616c6c6572206973206e6f74206f7760008201527f6e6572206e6f7220617070726f76656420666f7220616c6c0000000000000000602082015250565b7f4552433732313a2062616c616e636520717565727920666f7220746865207a6560008201527f726f206164647265737300000000000000000000000000000000000000000000602082015250565b7f4552433732313a206f776e657220717565727920666f72206e6f6e657869737460008201527f656e7420746f6b656e0000000000000000000000000000000000000000000000602082015250565b7f45524337323155524953746f726167653a2055524920736574206f66206e6f6e60008201527f6578697374656e7420746f6b656e000000000000000000000000000000000000602082015250565b7f227d000000000000000000000000000000000000000000000000000000000000600082015250565b7f4552433732313a206d696e7420746f20746865207a65726f2061646472657373600082015250565b7f45524337323155524953746f726167653a2055524920717565727920666f722060008201527f6e6f6e6578697374656e7420746f6b656e000000000000000000000000000000602082015250565b7f4552433732313a20617070726f76656420717565727920666f72206e6f6e657860008201527f697374656e7420746f6b656e0000000000000000000000000000000000000000602082015250565b7f4552433732313a207472616e73666572206f6620746f6b656e2074686174206960008201527f73206e6f74206f776e0000000000000000000000000000000000000000000000602082015250565b7f4552433732314d657461646174613a2055524920717565727920666f72206e6f60008201527f6e6578697374656e7420746f6b656e0000000000000000000000000000000000602082015250565b7f7b226e616d65223a202200000000000000000000000000000000000000000000600082015250565b7f4552433732313a20617070726f76616c20746f2063757272656e74206f776e6560008201527f7200000000000000000000000000000000000000000000000000000000000000602082015250565b7f46495253545f574f524400000000000000000000000000000000000000000000600082015250565b7f646174613a6170706c69636174696f6e2f6a736f6e3b6261736536342c000000600082015250565b7f4552433732313a207472616e736665722063616c6c6572206973206e6f74206f60008201527f776e6572206e6f7220617070726f766564000000000000000000000000000000602082015250565b7f434f4c4f52000000000000000000000000000000000000000000000000000000600082015250565b613cd9816133e6565b8114613ce457600080fd5b50565b613cf0816133f8565b8114613cfb57600080fd5b50565b613d0781613404565b8114613d1257600080fd5b50565b613d1e81613450565b8114613d2957600080fd5b5056fe416e204e465420772f20494420257320686173206265656e206d696e74656420746f2025734142434445464748494a4b4c4d4e4f505152535455565758595a6162636465666768696a6b6c6d6e6f707172737475767778797a303132333435363738392b2fa264697066735822122011744466660e51f5ade24789ee824dac7ea2bacfb22914c0721cc7d83974aad564736f6c634300080400333c73766720786d6c6e733d27687474703a2f2f7777772e77332e6f72672f323030302f73766727207072657365727665417370656374526174696f3d27784d696e594d696e206d656574272076696577426f783d273020302033353020333530273e3c7374796c653e2e62617365207b2066696c6c3a2077686974653b20666f6e742d66616d696c793a2073657269663b20666f6e742d73697a653a20323470783b207d3c2f7374796c653e3c726563742077696474683d273130302527206865696768743d2731303025272066696c6c3d27272f3e3c7465787420783d273530252720793d273530252720636c6173733d27626173652720646f6d696e616e742d626173656c696e653d276d6964646c652720746578742d616e63686f723d276d6964646c65273e",
  "linkReferences": {},
  "deployedLinkReferences": {}
}